:100B0200585020534850584F522059522050584E56
:100B1200205E5250585E5C20522052484952535235
:10090F0078217C007D007BFF7A0B79027E007F20AF
:10091F001208D07541FF120B41D200C201120B22F7
:10092F00D200D201D202120AE1E4FFEFFD3395E0CB
:10093F00FCD3ED94FEEC64809480506EE4FE742141
:10094F002EF8E6FD64206004ED6F800574212EF80B
:10095F00E6FD74422EF8A6050EBE20E2E4FE7442B8
:10096F002EF8E66420703774432EF8E6644E702E2E
:10097F0074442EF8E66455702574452EF8E6644DE0
:10098F00701C74462EF8E6B4451474472EF8E6B47E
:10099F00520C74482EF8E6B44F048F4180040EBEFB
:1009AF001ABCE541B4FF030F80817B007A007942C6
:1009BF001209D043B020120B5F53B0DF120B5F80D0
:0109CF00F235
:100B5F005389F0438902758A02858A8CC28DD28CA3
:080B6F00308DFDC28CC28D2205
:100B7700C293C297C296C295C294D292C292D2959C
:070B8700D292C292020B5F43
:100B2200C293C297C296C295C294D292C292D296F0
:0F0B3200A2009295A2019294D292C292020B5FFE
:100AE100C297C296C295C294D292C292D297A200E4
:100AF1009296A2019295A2029294D292C292020B74
:010B01005F94
:100B4100C297C296D295C294C293D292C292120B0C
:0E0B51005FD292C292D297D292C292020B5FF2
:100A93008F67C293D2977D06120B8E92967D05AF18
:100AA30067120B8E92957D04AF67120B8E9294D2D0
:100AB30092C2927D03AF67120B8E92977D02AF674E
:100AC300120B8E92967D01AF67120B8E9295E4FD09
:0E0AD300AF67120B8E9294D292C292020B5F0A
:060A380014F91208F6FF9C
:100A3E008F677D07120B8E92977D06AF67120B8E16
:100A4E0092967D05AF67120B8E92957D04AF67125D
:100A5E000B8E9294D293D292C2927D03AF67120BF9
:100A6E008E92977D02AF67120B8E92967D01AF67C5
:100A7E00120B8E9295E4FDAF67120B8E9294D2926A
:050A8E00C292020B5FA3
:0609D0008B628A6389645A
:1009D600E4F565F566AB62AA63A9641208F6605190
:1009E600C3E5669410E56564809480400DD3E566A2
:1009F6009410E565648094804019AB620564E564F3
:100A0600AA6370020563120A380566E56670C605B4
:100A16006580C27F40120A93AB620564E564AA63EF
:100A260070020563120A380566E56670A8056580DA
:010A3600A41B
:010A3700229C
:0F0B8E00AE05A806EF088003A2E713D8FB1322D9
:03000000020B9D53
:0C0B9D00787FE4F6D8FD75816702090F2F
:10080000E709F608DFFA8046E709F208DFFA803EDA
:1008100088828C83E709F0A3DFFA8032E309F608C7
:10082000DFFA8078E309F208DFFA807088828C832F
:10083000E309F0A3DFFA806489828A83E0A3F608E3
:10084000DFFA805889828A83E0A3F208DFFA804CBD
:1008500080D280FA80C680D4806980F28033801094
:1008600080A680EA809A80A880DA80E280CA8033FD
:1008700089828A83ECFAE493A3C8C582C8CCC58375
:10088000CCF0A3C8C582C8CCC583CCDFE9DEE78045
:100890000D89828A83E493A3F608DFF9ECFAA9F0C4
:1008A000EDFB2289828A83ECFAE0A3C8C582C8CC1A
:1008B000C583CCF0A3C8C582C8CCC583CCDFEADE33
:1008C000E880DB89828A83E493A3F208DFF980CC95
:1008D00088F0EF60010E4E60C388F0ED2402B4048E
:1008E0000050B9F582EB2402B4040050AF23234535
:0608F00082239008507302
:1008F600BB010689828A83E0225002E722BBFE0200
:09090600E32289828A83E4932232
:00000001FF
