:0B08E90048656C6C6F20383035310022
:0E08B3001208007BFF7A0879E912082F80FEF8
:040878007F3C7E0043
:10087C00EF4E60195389F0438902EFF404F58C852F
:0E088C008C8AC28DD28C308DFDC28CC28D2222
:100800001208787F201208C11208787F281208C1C8
:100810001208787F0C1208C11208787F011208C1F3
:0F0820001208787F061208C17F3C7E0002087C18
:10085400ED54F0FFE590540F4FF59012086EEDC47F
:0A08640054F0FFE590540F4FF5909B
:0A086E00D292120878C29202087CB0
:0E08C100AD07C2931208547F3C7E0002087CF3
:0E08CF00AD07D2931208547F3C7E0002087CD5
:10082F008B088A09890AAB08AA09A90A12089A60D3
:10083F0013050AE50A7002050914F912089AFF1246
:05084F0008CF80E22249
:030000000208DD16
:0C08DD00787FE4F6D8FD75810A0208B3AC
:10089A00BB010689828A83E0225002E722BBFE025C
:0908AA00E32289828A83E493228F
:00000001FF
