:1008A300456453696D3531204C4344204D6F647565
:1008B3006C652053696D756C6174696F6E0042617C
:1008C300736564206F6E20486974616368692048AA
:0708D30044343437383000D3
:1008DA001209A8D200C201120989D200D201D20299
:1008EA001209687BFF7A0879A312093D7F40120832
:1008FA00557BFF7A0879C112093DD2B5120000C2B0
:06090A00B512000080F4AC
:1009E3005389F0438902758AB6858A8CC28DD28C6D
:0809F300308DFDC28CC28D2283
:1009FB00C293C297C296C295C294D292C292D2951A
:070A0B00D292C2920209E33E
:10098900C293C297C296C295C294D292C292D2968B
:0F099900A2009295A2019294D292C2920209E317
:10096800C297C296C295C294D292C292D297A2005E
:100978009296A2019295A2029294D292C2920209F0
:01098800E38B
:1009C600C293C297C296C295D294D292C292A20301
:0D09D6009297A2049296D292C2920209E377
:1009A800C297C296D295C294C293D292C2921209A9
:0E09B800E3D292C292D297D292C2920209E387
:100855008F08C293D2977D06120A1292967D05AF34
:1008650008120A1292957D04AF08120A129294D2C8
:1008750092C2927D03AF08120A1292977D02AF08C9
:10088500120A1292967D01AF08120A129295E4FDA2
:0E089500AF08120A129294D292C2920209E3A4
:100800008F0D7D07120A1292977D06AF0D120A1204
:1008100092967D05AF0D120A1292957D04AF0D12CE
:100820000A129294D293D292C2927D03AF0D120A11
:100830001292977D02AF0D120A1292967D01AF0DB2
:10084000120A129295E4FDAF0D120A129294D292FE
:05085000C2920209E361
:06093D008B088A09890AFB
:10094300E4F50BF50CAB08AA09A90A850C82850B03
:1009530083120910FF600D120800050CE50C70E509
:04096300050B80E11F
:01096700226D
:0F0A1200AE05A806EF088003A2E713D8FB132256
:03000000020A21D0
:0C0A2100787FE4F6D8FD7581200208DA29
:10091000BB010CE58229F582E5833AF583E022509C
:1009200006E92582F8E622BBFE06E92582F8E222E6
:0D093000E58229F582E5833AF583E4932200
:00000001FF
